{
  "contractName": "MasterKardia",
  "abi": [
    {
      "inputs": [],
      "payable": false,
      "stateMutability": "nonpayable",
      "type": "constructor"
    },
    {
      "anonymous": false,
      "inputs": [
        {
          "indexed": false,
          "name": "childAddr",
          "type": "address"
        }
      ],
      "name": "onRequestDeploy",
      "type": "event"
    },
    {
      "anonymous": false,
      "inputs": [
        {
          "indexed": false,
          "name": "mainAddress",
          "type": "address"
        },
        {
          "indexed": false,
          "name": "candidate",
          "type": "bytes32"
        },
        {
          "indexed": false,
          "name": "valueEach",
          "type": "uint256"
        }
      ],
      "name": "onUpdateResult",
      "type": "event"
    },
    {
      "constant": true,
      "inputs": [],
      "name": "getOwner",
      "outputs": [
        {
          "name": "",
          "type": "address"
        }
      ],
      "payable": false,
      "stateMutability": "view",
      "type": "function"
    },
    {
      "constant": false,
      "inputs": [
        {
          "name": "newOwner",
          "type": "address"
        }
      ],
      "name": "transferOwner",
      "outputs": [],
      "payable": false,
      "stateMutability": "nonpayable",
      "type": "function"
    },
    {
      "constant": false,
      "inputs": [],
      "name": "requestDeploy",
      "outputs": [],
      "payable": false,
      "stateMutability": "nonpayable",
      "type": "function"
    },
    {
      "constant": false,
      "inputs": [
        {
          "name": "candidate",
          "type": "bytes32"
        },
        {
          "name": "value",
          "type": "uint256"
        }
      ],
      "name": "updateResult",
      "outputs": [],
      "payable": false,
      "stateMutability": "nonpayable",
      "type": "function"
    },
    {
      "constant": false,
      "inputs": [
        {
          "name": "kardiaAddr",
          "type": "address"
        },
        {
          "name": "candidate",
          "type": "bytes32"
        },
        {
          "name": "betValue",
          "type": "uint256"
        },
        {
          "name": "network",
          "type": "bytes32"
        },
        {
          "name": "originValue",
          "type": "uint256"
        },
        {
          "name": "voter",
          "type": "string"
        }
      ],
      "name": "onBet",
      "outputs": [],
      "payable": true,
      "stateMutability": "payable",
      "type": "function"
    },
    {
      "constant": false,
      "inputs": [],
      "name": "addFund",
      "outputs": [],
      "payable": true,
      "stateMutability": "payable",
      "type": "function"
    }
  ],
  "bytecode": "0x608060405234801561001057600080fd5b5060008054600160a060020a033316600160a060020a031990911617905561038a8061003d6000396000f3006080604052600436106100775763ffffffff7c01000000000000000000000000000000000000000000000000000000006000350416632b3f8de3811461007c5780634fb2e45d146100935780637a12bae9146100b4578063893d20e8146100cf578063a2f09dfa14610100578063c21c611714610108575b600080fd5b34801561008857600080fd5b50610091610170565b005b34801561009f57600080fd5b50610091600160a060020a03600435166101ae565b3480156100c057600080fd5b506100916004356024356101f1565b3480156100db57600080fd5b506100e461023e565b60408051600160a060020a039092168252519081900360200190f35b61009161024d565b604080516020600460a43581810135601f8101849004840285018401909552848452610091948235600160a060020a03169460248035956044359560643595608435953695929460c494920191819084018382808284375094975061024f9650505050505050565b60408051600160a060020a033316815290517f303f14191d9333deb894492862bec6eb1a92de852b0d4adb7db91c78646c9a319181900360200190a1565b60005433600160a060020a03908116911614156101ee576000805473ffffffffffffffffffffffffffffffffffffffff1916600160a060020a0383161790555b50565b60408051600160a060020a03331681526020810184905280820183905290517f711a5661746a100d65fb6207849927a69a15cc3bd9aa2ddff350771a8afaf5569181900360600190a15050565b600054600160a060020a031690565b565b6040517f57e6339e0000000000000000000000000000000000000000000000000000000081526004810186815260248201859052604482018490526064820186905260a060848301908152835160a484015283518993600160a060020a038516936357e6339e938b938a938a938d938b939192909160c490910190602085019080838360005b838110156102ed5781810151838201526020016102d5565b50505050905090810190601f16801561031a5780820380516001836020036101000a031916815260200191505b509650505050505050600060405180830381600087803b15801561033d57600080fd5b505af1158015610351573d6000803e3d6000fd5b50505050505050505050505600a165627a7a7230582076366cd59bc445132ec79b9da36b8c729a19639d5d5bc203e5dad5e5c269c0a40029",
  "source": "pragma solidity ^0.4.23;\nimport { Betting } from \"./Betting.sol\";\n\ncontract MasterKardia {\n  address owner;\n  modifier onlyAdmin() {\n    if (msg.sender == owner) _;\n  }\n\n  constructor() public {\n    owner = msg.sender;\n  }\n\n  function getOwner() public constant returns(address){\n    return owner;\n  }\n\n  function transferOwner(address newOwner) public onlyAdmin{\n    owner = newOwner;\n  }\n\n  event onRequestDeploy( address childAddr );\n\n  function requestDeploy() public {\n    emit onRequestDeploy(msg.sender);\n  }\n\n  event onUpdateResult(address mainAddress, bytes32 candidate, uint256 valueEach);\n\n  function updateResult(bytes32 candidate, uint256 value) public{\n    emit onUpdateResult(msg.sender, candidate, value);\n  }\n\n  function onBet(address kardiaAddr, bytes32 candidate, uint256 betValue, bytes32 network, uint256 originValue, string voter) public payable{\n    Betting betting = Betting(kardiaAddr);\n    betting.updateBet(candidate, network, originValue, betValue, voter);\n  }\n\n  function addFund() public payable{\n\n  }\n\n}\n",
  "sourcePath": "/Users/phutang/workspace/KardiaBetting/contract/contracts/MasterKardia.sol",
  "compiler": {
    "name": "solc",
    "version": "0.4.23+commit.124ca40d.Emscripten.clang"
  },
  "schemaVersion": "2.0.0",
  "updatedAt": "2018-08-10T04:33:37.085Z"
}