{
  "contractName": "Voting",
  "abi": [
    {
      "constant": true,
      "inputs": [
        {
          "name": "index",
          "type": "uint256"
        }
      ],
      "name": "getRequestedDeployByIndex",
      "outputs": [
        {
          "name": "",
          "type": "bytes32"
        }
      ],
      "payable": false,
      "stateMutability": "view",
      "type": "function"
    },
    {
      "constant": true,
      "inputs": [],
      "name": "getCandidates",
      "outputs": [
        {
          "name": "",
          "type": "bytes32[]"
        }
      ],
      "payable": false,
      "stateMutability": "view",
      "type": "function"
    },
    {
      "constant": true,
      "inputs": [],
      "name": "getCandiateCount",
      "outputs": [
        {
          "name": "",
          "type": "uint256"
        }
      ],
      "payable": false,
      "stateMutability": "view",
      "type": "function"
    },
    {
      "constant": true,
      "inputs": [
        {
          "name": "networkName",
          "type": "bytes32"
        }
      ],
      "name": "getAddressByNetwork",
      "outputs": [
        {
          "name": "",
          "type": "string"
        }
      ],
      "payable": false,
      "stateMutability": "view",
      "type": "function"
    },
    {
      "constant": false,
      "inputs": [
        {
          "name": "networkName",
          "type": "bytes32"
        },
        {
          "name": "smcAddress",
          "type": "string"
        }
      ],
      "name": "deploySuccess",
      "outputs": [],
      "payable": false,
      "stateMutability": "nonpayable",
      "type": "function"
    },
    {
      "constant": true,
      "inputs": [
        {
          "name": "",
          "type": "uint256"
        }
      ],
      "name": "requestedDeploy",
      "outputs": [
        {
          "name": "",
          "type": "bytes32"
        }
      ],
      "payable": false,
      "stateMutability": "view",
      "type": "function"
    },
    {
      "constant": true,
      "inputs": [],
      "name": "getrequestedDeploy",
      "outputs": [
        {
          "name": "",
          "type": "bytes32[]"
        }
      ],
      "payable": false,
      "stateMutability": "view",
      "type": "function"
    },
    {
      "constant": true,
      "inputs": [
        {
          "name": "index",
          "type": "uint256"
        }
      ],
      "name": "getCandiateByIndex",
      "outputs": [
        {
          "name": "",
          "type": "bytes32"
        }
      ],
      "payable": false,
      "stateMutability": "view",
      "type": "function"
    },
    {
      "constant": true,
      "inputs": [],
      "name": "getRequestedDeployCount",
      "outputs": [
        {
          "name": "",
          "type": "uint256"
        }
      ],
      "payable": false,
      "stateMutability": "view",
      "type": "function"
    },
    {
      "inputs": [
        {
          "name": "candidateNames",
          "type": "bytes32[]"
        },
        {
          "name": "networks",
          "type": "bytes32[]"
        },
        {
          "name": "eventAddress",
          "type": "address"
        }
      ],
      "payable": false,
      "stateMutability": "nonpayable",
      "type": "constructor"
    },
    {
      "constant": false,
      "inputs": [],
      "name": "closeVote",
      "outputs": [],
      "payable": false,
      "stateMutability": "nonpayable",
      "type": "function"
    },
    {
      "constant": true,
      "inputs": [],
      "name": "isClosed",
      "outputs": [
        {
          "name": "",
          "type": "bool"
        }
      ],
      "payable": false,
      "stateMutability": "view",
      "type": "function"
    },
    {
      "constant": false,
      "inputs": [
        {
          "name": "candidate",
          "type": "bytes32"
        },
        {
          "name": "voter",
          "type": "string"
        },
        {
          "name": "network",
          "type": "bytes32"
        }
      ],
      "name": "vote",
      "outputs": [],
      "payable": false,
      "stateMutability": "nonpayable",
      "type": "function"
    },
    {
      "constant": true,
      "inputs": [
        {
          "name": "candidate",
          "type": "bytes32"
        },
        {
          "name": "network",
          "type": "bytes32"
        }
      ],
      "name": "getVotesByCandidate",
      "outputs": [
        {
          "name": "",
          "type": "uint256"
        }
      ],
      "payable": false,
      "stateMutability": "view",
      "type": "function"
    }
  ],
  "bytecode": "0x608060405234801561001057600080fd5b50604051610deb380380610deb83398101604090815281516020808401519284015191840180519094939093019261004e916000919086019061017a565b50815161006290600290602085019061017a565b5060038054600160a060020a031916600160a060020a03838116919091179091556005805460ff191660011761010060a860020a03191661010033909316929092029190911790556100bb6401000000006100c3810204565b5050506101e4565b600360009054906101000a9004600160a060020a0316600160a060020a031660405180807f726571756573744465706c6f7928290000000000000000000000000000000000815250600f01905060405180910390207c010000000000000000000000000000000000000000000000000000000090046040518163ffffffff167c01000000000000000000000000000000000000000000000000000000000281526004016000604051808303816000875af150505050565b8280548282559060005260206000209081019282156101b7579160200282015b828111156101b7578251825560209092019160019091019061019a565b506101c39291506101c7565b5090565b6101e191905b808211156101c357600081556001016101cd565b90565b610bf8806101f36000396000f3006080604052600436106100ab5763ffffffff60e060020a60003504166301389c3781146100b057806306a49fce146100da578063120ae47d1461013f578063329d33461461015a57806333d1148b146101715780634bf918a4146101865780639fb6bcf214610213578063c00a83ef14610271578063c2b6b58c14610289578063cc2c9e19146102b2578063cfaafabd14610312578063e60a259c14610327578063f953b2ab1461033f575b600080fd5b3480156100bc57600080fd5b506100c8600435610354565b60408051918252519081900360200190f35b3480156100e657600080fd5b506100ef61036e565b60408051602080825283518183015283519192839290830191858101910280838360005b8381101561012b578181015183820152602001610113565b505050509050019250505060405180910390f35b34801561014b57600080fd5b506100c86004356024356103c8565b34801561016657600080fd5b5061016f6104f3565b005b34801561017d57600080fd5b506100c861075b565b34801561019257600080fd5b5061019e600435610761565b6040805160208082528351818301528351919283929083019185019080838360005b838110156101d85781810151838201526020016101c0565b50505050905090810190601f1680156102055780820380516001836020036101000a031916815260200191505b509250505060405180910390f35b34801561021f57600080fd5b5060408051602060046024803582810135601f810185900485028601850190965285855261016f9583359536956044949193909101919081908401838280828437509497506108049650505050505050565b34801561027d57600080fd5b506100c8600435610828565b34801561029557600080fd5b5061029e610847565b604080519115158252519081900360200190f35b3480156102be57600080fd5b5060408051602060046024803582810135601f810185900485028601850190965285855261016f95833595369560449491939091019190819084018382808284375094975050933594506108519350505050565b34801561031e57600080fd5b506100ef6108e8565b34801561033357600080fd5b506100c860043561093f565b34801561034b57600080fd5b506100c8610961565b600060028281548110151561036557fe5b50600052919050565b606060008054806020026020016040519081016040528092919081815260200182805480156103bd57602002820191906000526020600020905b815481526001909101906020018083116103a8575b505050505090505b90565b60008060006103d5610b14565b60009250600091505b6004548210156104e95760048054839081106103f657fe5b600091825260209182902060408051600393909302909101805460026001821615610100026000190190911604601f81018590049094028301608090810190925260608301848152929390928492909184918401828280156104995780601f1061046e57610100808354040283529160200191610499565b820191906000526020600020905b81548152906001019060200180831161047c57829003601f168201915b50505091835250506001820154602080830191909152600290920154604090910152810151909150861480156104d25750604081015185145b156104de576001909201915b6001909101906103de565b5090949350505050565b6005543373ffffffffffffffffffffffffffffffffffffffff90811661010090920416141561075957600354604080517f72657175657374496e766f6b6528616464726573732c627974657333322c627981527f74657333322c62797465733332290000000000000000000000000000000000006020820152905190819003602e01902073ffffffffffffffffffffffffffffffffffffffff9091169060e060020a9004336105c17f636c6f7365000000000000000000000000000000000000000000000000000000610966565b6105ea7f616c6c0000000000000000000000000000000000000000000000000000000000610966565b6105f46000610966565b6040518563ffffffff1660e060020a028152600401808573ffffffffffffffffffffffffffffffffffffffff1673ffffffffffffffffffffffffffffffffffffffff168152602001848051906020019080838360005b8381101561066257818101518382015260200161064a565b50505050905090810190601f16801561068f5780820380516001836020036101000a031916815260200191505b508351602085019080838360005b838110156106b557818101518382015260200161069d565b50505050905090810190601f1680156106e25780820380516001836020036101000a031916815260200191505b508251602084019080838360005b838110156107085781810151838201526020016106f0565b50505050905090810190601f1680156107355780820380516001836020036101000a031916815260200191505b509450505050506000604051808303816000875af150506005805460ff1916905550505b565b60005490565b60008181526001602081815260409283902080548451600260001995831615610100029590950190911693909304601f810183900483028401830190945283835260609390918301828280156107f85780601f106107cd576101008083540402835291602001916107f8565b820191906000526020600020905b8154815290600101906020018083116107db57829003601f168201915b50505050509050919050565b6000828152600160209081526040909120825161082392840190610b34565b505050565b600280548290811061083657fe5b600091825260209091200154905081565b60055460ff161590565b610859610b14565b60055460ff161515600114156108e2578281526020808201859052604082018390526004805460018101808355600092909252835180519293859360039093027f8a35acfbc15ff81a39ae7d344fd709f28e8600b4aa8c65c6b64bfe7fe36bd19b01926108c99284920190610b34565b5060208201516001820155604090910151600290910155505b50505050565b606060028054806020026020016040519081016040528092919081815260200182805480156103bd5760200282019190600052602060002090815481526001909101906020018083116103a8575050505050905090565b6000808281548110151561094f57fe5b90600052602060002001549050919050565b600090565b6040805160208082528183019092526060918291600091829182918591908082016104008038833901905050945060009350600092505b6020831015610a2a576008830260020a870291507fff00000000000000000000000000000000000000000000000000000000000000821615610a1f578185858151811015156109e857fe5b9060200101907effffffffffffffffffffffffffffffffffffffffffffffffffffffffffffff1916908160001a9053506001909301925b60019092019161099d565b836040519080825280601f01601f191660200182016040528015610a58578160200160208202803883390190505b509050600092505b83831015610b0a578483815181101515610a7657fe5b9060200101517f010000000000000000000000000000000000000000000000000000000000000090047f0100000000000000000000000000000000000000000000000000000000000000028184815181101515610acf57fe5b9060200101907effffffffffffffffffffffffffffffffffffffffffffffffffffffffffffff1916908160001a905350600190920191610a60565b9695505050505050565b604080516060818101835281526000602082018190529181019190915290565b828054600181600116156101000203166002900490600052602060002090601f016020900481019282601f10610b7557805160ff1916838001178555610ba2565b82800160010185558215610ba2579182015b82811115610ba2578251825591602001919060010190610b87565b50610bae929150610bb2565b5090565b6103c591905b80821115610bae5760008155600101610bb85600a165627a7a7230582007feb1d33f65cfaa9b47cf73e1eb2bdc7873950ef04d3b301e6885a4fa1234360029",
  "source": "pragma solidity ^0.4.23;\n\nimport { KardiaToolkit } from \"./KardiaToolkit.sol\";\n\ncontract Voting is KardiaToolkit {\n\n  struct Votes {\n    string voter;\n    bytes32 candidate;\n    bytes32 network;\n  }\n  Votes[] result;\n  bool isEnable;\n\n  address owner;\n\n  modifier onlyAdmin() {\n    if (msg.sender == owner) _;\n  }\n\n\n  constructor(bytes32[] candidateNames, bytes32[] networks, address eventAddress) public {\n    // constructor\n    candidates = candidateNames;\n    requestedDeploy = networks;\n    masterAddress = eventAddress;\n    isEnable = true;\n    owner = msg.sender;\n    requestDeploy();\n  }\n\n  function closeVote() public onlyAdmin{\n    masterAddress.call(bytes4(keccak256(\"requestInvoke(address,bytes32,bytes32,bytes32)\")),\n      msg.sender,\n      bytes32ToString(\"close\"),\n      bytes32ToString(\"all\"),\n      bytes32ToString(\"\")\n    );\n    isEnable = false;\n  }\n\n  function isClosed() public view returns(bool) {\n    return isEnable == false;\n  }\n\n  function vote(bytes32 candidate, string voter, bytes32 network) public {\n    if(isEnable == true) {\n      Votes memory temp;\n      temp.voter = voter;\n      temp.candidate = candidate;\n      temp.network = network;\n      result.push(temp);\n    }\n  }\n\n  function getVotesByCandidate( bytes32 candidate, bytes32 network) public view returns(uint256) {\n    uint256 count =0;\n    for(uint256 i=0 ; i<result.length ; i++) {\n      Votes memory temp = result[i];\n      if(temp.candidate == candidate && temp.network == network){\n        count ++;\n      }\n    }\n    return count;\n  }\n}\n",
  "sourcePath": "/Users/phutang/workspace/kardiaMaster/contracts/Voting.sol",
  "compiler": {
    "name": "solc",
    "version": "0.4.23+commit.124ca40d.Emscripten.clang"
  },
  "schemaVersion": "2.0.0",
  "updatedAt": "2018-06-22T05:21:51.445Z"
}